{
	"AllowanceBudget.sol": {
		"AllowanceBudget": {
			"abi": [
				{
					"inputs": [],
					"name": "claimAllowance",
					"outputs": [],
					"stateMutability": "nonpayable",
					"type": "function"
				},
				{
					"inputs": [
						{
							"internalType": "address",
							"name": "beneficiary",
							"type": "address"
						},
						{
							"internalType": "uint256",
							"name": "allowancePerInterval",
							"type": "uint256"
						},
						{
							"internalType": "uint256",
							"name": "interval",
							"type": "uint256"
						}
					],
					"name": "createPlan",
					"outputs": [],
					"stateMutability": "payable",
					"type": "function"
				},
				{
					"inputs": [
						{
							"internalType": "address",
							"name": "beneficiary",
							"type": "address"
						}
					],
					"name": "getPlan",
					"outputs": [
						{
							"internalType": "address",
							"name": "",
							"type": "address"
						},
						{
							"internalType": "uint256",
							"name": "",
							"type": "uint256"
						},
						{
							"internalType": "uint256",
							"name": "",
							"type": "uint256"
						},
						{
							"internalType": "uint256",
							"name": "",
							"type": "uint256"
						},
						{
							"internalType": "uint256",
							"name": "",
							"type": "uint256"
						},
						{
							"internalType": "uint256",
							"name": "",
							"type": "uint256"
						}
					],
					"stateMutability": "view",
					"type": "function"
				},
				{
					"inputs": [
						{
							"internalType": "address",
							"name": "",
							"type": "address"
						}
					],
					"name": "plans",
					"outputs": [
						{
							"internalType": "address",
							"name": "funder",
							"type": "address"
						},
						{
							"internalType": "uint256",
							"name": "totalAmount",
							"type": "uint256"
						},
						{
							"internalType": "uint256",
							"name": "allowancePerInterval",
							"type": "uint256"
						},
						{
							"internalType": "uint256",
							"name": "interval",
							"type": "uint256"
						},
						{
							"internalType": "uint256",
							"name": "lastClaimed",
							"type": "uint256"
						},
						{
							"internalType": "uint256",
							"name": "remainingBalance",
							"type": "uint256"
						}
					],
					"stateMutability": "view",
					"type": "function"
				}
			],
			"devdoc": {
				"kind": "dev",
				"methods": {},
				"version": 1
			},
			"evm": {
				"assembly": "    /* \"AllowanceBudget.sol\":30:1841  contract AllowanceBudget {... */\n  mstore(0x40, 0x80)\n  callvalue\n  dup1\n  iszero\n  tag_1\n  jumpi\n  revert(0x00, 0x00)\ntag_1:\n  pop\n  dataSize(sub_0)\n  dup1\n  dataOffset(sub_0)\n  0x00\n  codecopy\n  0x00\n  return\nstop\n\nsub_0: assembly {\n        /* \"AllowanceBudget.sol\":30:1841  contract AllowanceBudget {... */\n      mstore(0x40, 0x80)\n      jumpi(tag_1, lt(calldatasize, 0x04))\n      shr(0xe0, calldataload(0x00))\n      dup1\n      0x1259b484\n      eq\n      tag_2\n      jumpi\n      dup1\n      0x7cb22aaf\n      eq\n      tag_3\n      jumpi\n      dup1\n      0x86d86d84\n      eq\n      tag_4\n      jumpi\n      dup1\n      0xe95fc90f\n      eq\n      tag_5\n      jumpi\n    tag_1:\n      revert(0x00, 0x00)\n        /* \"AllowanceBudget.sol\":912:1428  function claimAllowance() external {... */\n    tag_2:\n      callvalue\n      dup1\n      iszero\n      tag_6\n      jumpi\n      revert(0x00, 0x00)\n    tag_6:\n      pop\n      tag_7\n      tag_8\n      jump\t// in\n    tag_7:\n      stop\n        /* \"AllowanceBudget.sol\":1436:1838  function getPlan(address beneficiary) external view returns (... */\n    tag_3:\n      callvalue\n      dup1\n      iszero\n      tag_9\n      jumpi\n      revert(0x00, 0x00)\n    tag_9:\n      pop\n      tag_10\n      0x04\n      dup1\n      calldatasize\n      sub\n      dup2\n      add\n      swap1\n      tag_11\n      swap2\n      swap1\n      tag_12\n      jump\t// in\n    tag_11:\n      tag_13\n      jump\t// in\n    tag_10:\n      mload(0x40)\n      tag_14\n      swap7\n      swap6\n      swap5\n      swap4\n      swap3\n      swap2\n      swap1\n      tag_15\n      jump\t// in\n    tag_14:\n      mload(0x40)\n      dup1\n      swap2\n      sub\n      swap1\n      return\n        /* \"AllowanceBudget.sol\":270:316  mapping(address => AllowancePlan) public plans */\n    tag_4:\n      callvalue\n      dup1\n      iszero\n      tag_16\n      jumpi\n      revert(0x00, 0x00)\n    tag_16:\n      pop\n      tag_17\n      0x04\n      dup1\n      calldatasize\n      sub\n      dup2\n      add\n      swap1\n      tag_18\n      swap2\n      swap1\n      tag_12\n      jump\t// in\n    tag_18:\n      tag_19\n      jump\t// in\n    tag_17:\n      mload(0x40)\n      tag_20\n      swap7\n      swap6\n      swap5\n      swap4\n      swap3\n      swap2\n      swap1\n      tag_15\n      jump\t// in\n    tag_20:\n      mload(0x40)\n      dup1\n      swap2\n      sub\n      swap1\n      return\n        /* \"AllowanceBudget.sol\":325:904  function createPlan(... */\n    tag_5:\n      tag_21\n      0x04\n      dup1\n      calldatasize\n      sub\n      dup2\n      add\n      swap1\n      tag_22\n      swap2\n      swap1\n      tag_23\n      jump\t// in\n    tag_22:\n      tag_24\n      jump\t// in\n    tag_21:\n      stop\n        /* \"AllowanceBudget.sol\":912:1428  function claimAllowance() external {... */\n    tag_8:\n        /* \"AllowanceBudget.sol\":958:984  AllowancePlan storage plan */\n      0x00\n        /* \"AllowanceBudget.sol\":987:992  plans */\n      0x00\n        /* \"AllowanceBudget.sol\":987:1004  plans[msg.sender] */\n      0x00\n        /* \"AllowanceBudget.sol\":993:1003  msg.sender */\n      caller\n        /* \"AllowanceBudget.sol\":987:1004  plans[msg.sender] */\n      0xffffffffffffffffffffffffffffffffffffffff\n      and\n      0xffffffffffffffffffffffffffffffffffffffff\n      and\n      dup2\n      mstore\n      0x20\n      add\n      swap1\n      dup2\n      mstore\n      0x20\n      add\n      0x00\n      keccak256\n        /* \"AllowanceBudget.sol\":958:1004  AllowancePlan storage plan = plans[msg.sender] */\n      swap1\n      pop\n        /* \"AllowanceBudget.sol\":1046:1047  0 */\n      0x00\n        /* \"AllowanceBudget.sol\":1023:1048  plan.funder != address(0) */\n      0xffffffffffffffffffffffffffffffffffffffff\n      and\n        /* \"AllowanceBudget.sol\":1023:1027  plan */\n      dup2\n        /* \"AllowanceBudget.sol\":1023:1034  plan.funder */\n      0x00\n      add\n      0x00\n      swap1\n      sload\n      swap1\n      0x0100\n      exp\n      swap1\n      div\n      0xffffffffffffffffffffffffffffffffffffffff\n      and\n        /* \"AllowanceBudget.sol\":1023:1048  plan.funder != address(0) */\n      0xffffffffffffffffffffffffffffffffffffffff\n      and\n      sub\n        /* \"AllowanceBudget.sol\":1015:1066  require(plan.funder != address(0), \"No plan found\") */\n      tag_26\n      jumpi\n      mload(0x40)\n      0x08c379a000000000000000000000000000000000000000000000000000000000\n      dup2\n      mstore\n      0x04\n      add\n      tag_27\n      swap1\n      tag_28\n      jump\t// in\n    tag_27:\n      mload(0x40)\n      dup1\n      swap2\n      sub\n      swap1\n      revert\n    tag_26:\n        /* \"AllowanceBudget.sol\":1110:1114  plan */\n      dup1\n        /* \"AllowanceBudget.sol\":1110:1135  plan.allowancePerInterval */\n      0x02\n      add\n      sload\n        /* \"AllowanceBudget.sol\":1085:1089  plan */\n      dup2\n        /* \"AllowanceBudget.sol\":1085:1106  plan.remainingBalance */\n      0x05\n      add\n      sload\n        /* \"AllowanceBudget.sol\":1085:1135  plan.remainingBalance >= plan.allowancePerInterval */\n      lt\n      iszero\n        /* \"AllowanceBudget.sol\":1077:1160  require(plan.remainingBalance >= plan.allowancePerInterval, \"Insufficient balance\") */\n      tag_29\n      jumpi\n      mload(0x40)\n      0x08c379a000000000000000000000000000000000000000000000000000000000\n      dup2\n      mstore\n      0x04\n      add\n      tag_30\n      swap1\n      tag_31\n      jump\t// in\n    tag_30:\n      mload(0x40)\n      dup1\n      swap2\n      sub\n      swap1\n      revert\n    tag_29:\n        /* \"AllowanceBudget.sol\":1217:1221  plan */\n      dup1\n        /* \"AllowanceBudget.sol\":1217:1230  plan.interval */\n      0x03\n      add\n      sload\n        /* \"AllowanceBudget.sol\":1198:1202  plan */\n      dup2\n        /* \"AllowanceBudget.sol\":1198:1214  plan.lastClaimed */\n      0x04\n      add\n      sload\n        /* \"AllowanceBudget.sol\":1198:1230  plan.lastClaimed + plan.interval */\n      tag_32\n      swap2\n      swap1\n      tag_33\n      jump\t// in\n    tag_32:\n        /* \"AllowanceBudget.sol\":1179:1194  block.timestamp */\n      timestamp\n        /* \"AllowanceBudget.sol\":1179:1230  block.timestamp >= plan.lastClaimed + plan.interval */\n      lt\n      iszero\n        /* \"AllowanceBudget.sol\":1171:1244  require(block.timestamp >= plan.lastClaimed + plan.interval, \"Too early\") */\n      tag_34\n      jumpi\n      mload(0x40)\n      0x08c379a000000000000000000000000000000000000000000000000000000000\n      dup2\n      mstore\n      0x04\n      add\n      tag_35\n      swap1\n      tag_36\n      jump\t// in\n    tag_35:\n      mload(0x40)\n      dup1\n      swap2\n      sub\n      swap1\n      revert\n    tag_34:\n        /* \"AllowanceBudget.sol\":1276:1291  block.timestamp */\n      timestamp\n        /* \"AllowanceBudget.sol\":1257:1261  plan */\n      dup2\n        /* \"AllowanceBudget.sol\":1257:1273  plan.lastClaimed */\n      0x04\n      add\n        /* \"AllowanceBudget.sol\":1257:1291  plan.lastClaimed = block.timestamp */\n      dup2\n      swap1\n      sstore\n      pop\n        /* \"AllowanceBudget.sol\":1327:1331  plan */\n      dup1\n        /* \"AllowanceBudget.sol\":1327:1352  plan.allowancePerInterval */\n      0x02\n      add\n      sload\n        /* \"AllowanceBudget.sol\":1302:1306  plan */\n      dup2\n        /* \"AllowanceBudget.sol\":1302:1323  plan.remainingBalance */\n      0x05\n      add\n      0x00\n        /* \"AllowanceBudget.sol\":1302:1352  plan.remainingBalance -= plan.allowancePerInterval */\n      dup3\n      dup3\n      sload\n      tag_37\n      swap2\n      swap1\n      tag_38\n      jump\t// in\n    tag_37:\n      swap3\n      pop\n      pop\n      dup2\n      swap1\n      sstore\n      pop\n        /* \"AllowanceBudget.sol\":1373:1383  msg.sender */\n      caller\n        /* \"AllowanceBudget.sol\":1365:1393  payable(msg.sender).transfer */\n      0xffffffffffffffffffffffffffffffffffffffff\n      and\n        /* \"AllowanceBudget.sol\":1365:1420  payable(msg.sender).transfer(plan.allowancePerInterval) */\n      0x08fc\n        /* \"AllowanceBudget.sol\":1394:1398  plan */\n      dup3\n        /* \"AllowanceBudget.sol\":1394:1419  plan.allowancePerInterval */\n      0x02\n      add\n      sload\n        /* \"AllowanceBudget.sol\":1365:1420  payable(msg.sender).transfer(plan.allowancePerInterval) */\n      swap1\n      dup2\n      iszero\n      mul\n      swap1\n      mload(0x40)\n      0x00\n      mload(0x40)\n      dup1\n      dup4\n      sub\n      dup2\n      dup6\n      dup9\n      dup9\n      call\n      swap4\n      pop\n      pop\n      pop\n      pop\n      iszero\n      dup1\n      iszero\n      tag_40\n      jumpi\n      returndatacopy(0x00, 0x00, returndatasize)\n      revert(0x00, returndatasize)\n    tag_40:\n      pop\n        /* \"AllowanceBudget.sol\":947:1428  {... */\n      pop\n        /* \"AllowanceBudget.sol\":912:1428  function claimAllowance() external {... */\n      jump\t// out\n        /* \"AllowanceBudget.sol\":1436:1838  function getPlan(address beneficiary) external view returns (... */\n    tag_13:\n        /* \"AllowanceBudget.sol\":1507:1514  address */\n      0x00\n        /* \"AllowanceBudget.sol\":1516:1520  uint */\n      0x00\n        /* \"AllowanceBudget.sol\":1522:1526  uint */\n      0x00\n        /* \"AllowanceBudget.sol\":1528:1532  uint */\n      0x00\n        /* \"AllowanceBudget.sol\":1534:1538  uint */\n      0x00\n        /* \"AllowanceBudget.sol\":1540:1544  uint */\n      0x00\n        /* \"AllowanceBudget.sol\":1563:1588  AllowancePlan memory plan */\n      0x00\n        /* \"AllowanceBudget.sol\":1591:1596  plans */\n      0x00\n        /* \"AllowanceBudget.sol\":1591:1609  plans[beneficiary] */\n      0x00\n        /* \"AllowanceBudget.sol\":1597:1608  beneficiary */\n      dup10\n        /* \"AllowanceBudget.sol\":1591:1609  plans[beneficiary] */\n      0xffffffffffffffffffffffffffffffffffffffff\n      and\n      0xffffffffffffffffffffffffffffffffffffffff\n      and\n      dup2\n      mstore\n      0x20\n      add\n      swap1\n      dup2\n      mstore\n      0x20\n      add\n      0x00\n      keccak256\n        /* \"AllowanceBudget.sol\":1563:1609  AllowancePlan memory plan = plans[beneficiary] */\n      mload(0x40)\n      dup1\n      0xc0\n      add\n      0x40\n      mstore\n      swap1\n      dup2\n      0x00\n      dup3\n      add\n      0x00\n      swap1\n      sload\n      swap1\n      0x0100\n      exp\n      swap1\n      div\n      0xffffffffffffffffffffffffffffffffffffffff\n      and\n      0xffffffffffffffffffffffffffffffffffffffff\n      and\n      0xffffffffffffffffffffffffffffffffffffffff\n      and\n      dup2\n      mstore\n      0x20\n      add\n      0x01\n      dup3\n      add\n      sload\n      dup2\n      mstore\n      0x20\n      add\n      0x02\n      dup3\n      add\n      sload\n      dup2\n      mstore\n      0x20\n      add\n      0x03\n      dup3\n      add\n      sload\n      dup2\n      mstore\n      0x20\n      add\n      0x04\n      dup3\n      add\n      sload\n      dup2\n      mstore\n      0x20\n      add\n      0x05\n      dup3\n      add\n      sload\n      dup2\n      mstore\n      pop\n      pop\n      swap1\n      pop\n        /* \"AllowanceBudget.sol\":1642:1646  plan */\n      dup1\n        /* \"AllowanceBudget.sol\":1642:1653  plan.funder */\n      0x00\n      add\n      mload\n        /* \"AllowanceBudget.sol\":1668:1672  plan */\n      dup2\n        /* \"AllowanceBudget.sol\":1668:1684  plan.totalAmount */\n      0x20\n      add\n      mload\n        /* \"AllowanceBudget.sol\":1699:1703  plan */\n      dup3\n        /* \"AllowanceBudget.sol\":1699:1724  plan.allowancePerInterval */\n      0x40\n      add\n      mload\n        /* \"AllowanceBudget.sol\":1739:1743  plan */\n      dup4\n        /* \"AllowanceBudget.sol\":1739:1752  plan.interval */\n      0x60\n      add\n      mload\n        /* \"AllowanceBudget.sol\":1767:1771  plan */\n      dup5\n        /* \"AllowanceBudget.sol\":1767:1783  plan.lastClaimed */\n      0x80\n      add\n      mload\n        /* \"AllowanceBudget.sol\":1798:1802  plan */\n      dup6\n        /* \"AllowanceBudget.sol\":1798:1819  plan.remainingBalance */\n      0xa0\n      add\n      mload\n        /* \"AllowanceBudget.sol\":1620:1830  return (... */\n      swap7\n      pop\n      swap7\n      pop\n      swap7\n      pop\n      swap7\n      pop\n      swap7\n      pop\n      swap7\n      pop\n      pop\n        /* \"AllowanceBudget.sol\":1436:1838  function getPlan(address beneficiary) external view returns (... */\n      swap2\n      swap4\n      swap6\n      pop\n      swap2\n      swap4\n      swap6\n      jump\t// out\n        /* \"AllowanceBudget.sol\":270:316  mapping(address => AllowancePlan) public plans */\n    tag_19:\n      mstore(0x20, 0x00)\n      dup1\n      0x00\n      mstore\n      keccak256(0x00, 0x40)\n      0x00\n      swap2\n      pop\n      swap1\n      pop\n      dup1\n      0x00\n      add\n      0x00\n      swap1\n      sload\n      swap1\n      0x0100\n      exp\n      swap1\n      div\n      0xffffffffffffffffffffffffffffffffffffffff\n      and\n      swap1\n      dup1\n      0x01\n      add\n      sload\n      swap1\n      dup1\n      0x02\n      add\n      sload\n      swap1\n      dup1\n      0x03\n      add\n      sload\n      swap1\n      dup1\n      0x04\n      add\n      sload\n      swap1\n      dup1\n      0x05\n      add\n      sload\n      swap1\n      pop\n      dup7\n      jump\t// out\n        /* \"AllowanceBudget.sol\":325:904  function createPlan(... */\n    tag_24:\n        /* \"AllowanceBudget.sol\":490:491  0 */\n      0x00\n        /* \"AllowanceBudget.sol\":478:487  msg.value */\n      callvalue\n        /* \"AllowanceBudget.sol\":478:491  msg.value > 0 */\n      gt\n        /* \"AllowanceBudget.sol\":470:517  require(msg.value > 0, \"Send ETH to fund plan\") */\n      tag_43\n      jumpi\n      mload(0x40)\n      0x08c379a000000000000000000000000000000000000000000000000000000000\n      dup2\n      mstore\n      0x04\n      add\n      tag_44\n      swap1\n      tag_45\n      jump\t// in\n    tag_44:\n      mload(0x40)\n      dup1\n      swap2\n      sub\n      swap1\n      revert\n    tag_43:\n        /* \"AllowanceBudget.sol\":573:574  0 */\n      0x00\n        /* \"AllowanceBudget.sol\":536:575  plans[beneficiary].funder == address(0) */\n      0xffffffffffffffffffffffffffffffffffffffff\n      and\n        /* \"AllowanceBudget.sol\":536:541  plans */\n      0x00\n        /* \"AllowanceBudget.sol\":536:554  plans[beneficiary] */\n      0x00\n        /* \"AllowanceBudget.sol\":542:553  beneficiary */\n      dup6\n        /* \"AllowanceBudget.sol\":536:554  plans[beneficiary] */\n      0xffffffffffffffffffffffffffffffffffffffff\n      and\n      0xffffffffffffffffffffffffffffffffffffffff\n      and\n      dup2\n      mstore\n      0x20\n      add\n      swap1\n      dup2\n      mstore\n      0x20\n      add\n      0x00\n      keccak256\n        /* \"AllowanceBudget.sol\":536:561  plans[beneficiary].funder */\n      0x00\n      add\n      0x00\n      swap1\n      sload\n      swap1\n      0x0100\n      exp\n      swap1\n      div\n      0xffffffffffffffffffffffffffffffffffffffff\n      and\n        /* \"AllowanceBudget.sol\":536:575  plans[beneficiary].funder == address(0) */\n      0xffffffffffffffffffffffffffffffffffffffff\n      and\n      eq\n        /* \"AllowanceBudget.sol\":528:591  require(plans[beneficiary].funder == address(0), \"Plan exists\") */\n      tag_46\n      jumpi\n      mload(0x40)\n      0x08c379a000000000000000000000000000000000000000000000000000000000\n      dup2\n      mstore\n      0x04\n      add\n      tag_47\n      swap1\n      tag_48\n      jump\t// in\n    tag_47:\n      mload(0x40)\n      dup1\n      swap2\n      sub\n      swap1\n      revert\n    tag_46:\n        /* \"AllowanceBudget.sol\":625:896  AllowancePlan({... */\n      mload(0x40)\n      dup1\n      0xc0\n      add\n      0x40\n      mstore\n      dup1\n        /* \"AllowanceBudget.sol\":662:672  msg.sender */\n      caller\n        /* \"AllowanceBudget.sol\":625:896  AllowancePlan({... */\n      0xffffffffffffffffffffffffffffffffffffffff\n      and\n      dup2\n      mstore\n      0x20\n      add\n        /* \"AllowanceBudget.sol\":700:709  msg.value */\n      callvalue\n        /* \"AllowanceBudget.sol\":625:896  AllowancePlan({... */\n      dup2\n      mstore\n      0x20\n      add\n        /* \"AllowanceBudget.sol\":746:766  allowancePerInterval */\n      dup4\n        /* \"AllowanceBudget.sol\":625:896  AllowancePlan({... */\n      dup2\n      mstore\n      0x20\n      add\n        /* \"AllowanceBudget.sol\":791:799  interval */\n      dup3\n        /* \"AllowanceBudget.sol\":625:896  AllowancePlan({... */\n      dup2\n      mstore\n      0x20\n      add\n        /* \"AllowanceBudget.sol\":827:842  block.timestamp */\n      timestamp\n        /* \"AllowanceBudget.sol\":625:896  AllowancePlan({... */\n      dup2\n      mstore\n      0x20\n      add\n        /* \"AllowanceBudget.sol\":875:884  msg.value */\n      callvalue\n        /* \"AllowanceBudget.sol\":625:896  AllowancePlan({... */\n      dup2\n      mstore\n      pop\n        /* \"AllowanceBudget.sol\":604:609  plans */\n      0x00\n        /* \"AllowanceBudget.sol\":604:622  plans[beneficiary] */\n      0x00\n        /* \"AllowanceBudget.sol\":610:621  beneficiary */\n      dup6\n        /* \"AllowanceBudget.sol\":604:622  plans[beneficiary] */\n      0xffffffffffffffffffffffffffffffffffffffff\n      and\n      0xffffffffffffffffffffffffffffffffffffffff\n      and\n      dup2\n      mstore\n      0x20\n      add\n      swap1\n      dup2\n      mstore\n      0x20\n      add\n      0x00\n      keccak256\n        /* \"AllowanceBudget.sol\":604:896  plans[beneficiary] = AllowancePlan({... */\n      0x00\n      dup3\n      add\n      mload\n      dup2\n      0x00\n      add\n      exp(0x0100, 0x00)\n      dup2\n      sload\n      dup2\n      0xffffffffffffffffffffffffffffffffffffffff\n      mul\n      not\n      and\n      swap1\n      dup4\n      0xffffffffffffffffffffffffffffffffffffffff\n      and\n      mul\n      or\n      swap1\n      sstore\n      pop\n      0x20\n      dup3\n      add\n      mload\n      dup2\n      0x01\n      add\n      sstore\n      0x40\n      dup3\n      add\n      mload\n      dup2\n      0x02\n      add\n      sstore\n      0x60\n      dup3\n      add\n      mload\n      dup2\n      0x03\n      add\n      sstore\n      0x80\n      dup3\n      add\n      mload\n      dup2\n      0x04\n      add\n      sstore\n      0xa0\n      dup3\n      add\n      mload\n      dup2\n      0x05\n      add\n      sstore\n      swap1\n      pop\n      pop\n        /* \"AllowanceBudget.sol\":325:904  function createPlan(... */\n      pop\n      pop\n      pop\n      jump\t// out\n        /* \"#utility.yul\":88:205   */\n    tag_50:\n        /* \"#utility.yul\":197:198   */\n      0x00\n        /* \"#utility.yul\":194:195   */\n      0x00\n        /* \"#utility.yul\":187:199   */\n      revert\n        /* \"#utility.yul\":334:460   */\n    tag_52:\n        /* \"#utility.yul\":371:378   */\n      0x00\n        /* \"#utility.yul\":411:453   */\n      0xffffffffffffffffffffffffffffffffffffffff\n        /* \"#utility.yul\":404:409   */\n      dup3\n        /* \"#utility.yul\":400:454   */\n      and\n        /* \"#utility.yul\":389:454   */\n      swap1\n      pop\n        /* \"#utility.yul\":334:460   */\n      swap2\n      swap1\n      pop\n      jump\t// out\n        /* \"#utility.yul\":466:562   */\n    tag_53:\n        /* \"#utility.yul\":503:510   */\n      0x00\n        /* \"#utility.yul\":532:556   */\n      tag_79\n        /* \"#utility.yul\":550:555   */\n      dup3\n        /* \"#utility.yul\":532:556   */\n      tag_52\n      jump\t// in\n    tag_79:\n        /* \"#utility.yul\":521:556   */\n      swap1\n      pop\n        /* \"#utility.yul\":466:562   */\n      swap2\n      swap1\n      pop\n      jump\t// out\n        /* \"#utility.yul\":568:690   */\n    tag_54:\n        /* \"#utility.yul\":641:665   */\n      tag_81\n        /* \"#utility.yul\":659:664   */\n      dup2\n        /* \"#utility.yul\":641:665   */\n      tag_53\n      jump\t// in\n    tag_81:\n        /* \"#utility.yul\":634:639   */\n      dup2\n        /* \"#utility.yul\":631:666   */\n      eq\n        /* \"#utility.yul\":621:684   */\n      tag_82\n      jumpi\n        /* \"#utility.yul\":680:681   */\n      0x00\n        /* \"#utility.yul\":677:678   */\n      0x00\n        /* \"#utility.yul\":670:682   */\n      revert\n        /* \"#utility.yul\":621:684   */\n    tag_82:\n        /* \"#utility.yul\":568:690   */\n      pop\n      jump\t// out\n        /* \"#utility.yul\":696:835   */\n    tag_55:\n        /* \"#utility.yul\":742:747   */\n      0x00\n        /* \"#utility.yul\":780:786   */\n      dup2\n        /* \"#utility.yul\":767:787   */\n      calldataload\n        /* \"#utility.yul\":758:787   */\n      swap1\n      pop\n        /* \"#utility.yul\":796:829   */\n      tag_84\n        /* \"#utility.yul\":823:828   */\n      dup2\n        /* \"#utility.yul\":796:829   */\n      tag_54\n      jump\t// in\n    tag_84:\n        /* \"#utility.yul\":696:835   */\n      swap3\n      swap2\n      pop\n      pop\n      jump\t// out\n        /* \"#utility.yul\":841:1170   */\n    tag_12:\n        /* \"#utility.yul\":900:906   */\n      0x00\n        /* \"#utility.yul\":949:951   */\n      0x20\n        /* \"#utility.yul\":937:946   */\n      dup3\n        /* \"#utility.yul\":928:935   */\n      dup5\n        /* \"#utility.yul\":924:947   */\n      sub\n        /* \"#utility.yul\":920:952   */\n      slt\n        /* \"#utility.yul\":917:1036   */\n      iszero\n      tag_86\n      jumpi\n        /* \"#utility.yul\":955:1034   */\n      tag_87\n      tag_50\n      jump\t// in\n    tag_87:\n        /* \"#utility.yul\":917:1036   */\n    tag_86:\n        /* \"#utility.yul\":1075:1076   */\n      0x00\n        /* \"#utility.yul\":1100:1153   */\n      tag_88\n        /* \"#utility.yul\":1145:1152   */\n      dup5\n        /* \"#utility.yul\":1136:1142   */\n      dup3\n        /* \"#utility.yul\":1125:1134   */\n      dup6\n        /* \"#utility.yul\":1121:1143   */\n      add\n        /* \"#utility.yul\":1100:1153   */\n      tag_55\n      jump\t// in\n    tag_88:\n        /* \"#utility.yul\":1090:1153   */\n      swap2\n      pop\n        /* \"#utility.yul\":1046:1163   */\n      pop\n        /* \"#utility.yul\":841:1170   */\n      swap3\n      swap2\n      pop\n      pop\n      jump\t// out\n        /* \"#utility.yul\":1176:1294   */\n    tag_56:\n        /* \"#utility.yul\":1263:1287   */\n      tag_90\n        /* \"#utility.yul\":1281:1286   */\n      dup2\n        /* \"#utility.yul\":1263:1287   */\n      tag_53\n      jump\t// in\n    tag_90:\n        /* \"#utility.yul\":1258:1261   */\n      dup3\n        /* \"#utility.yul\":1251:1288   */\n      mstore\n        /* \"#utility.yul\":1176:1294   */\n      pop\n      pop\n      jump\t// out\n        /* \"#utility.yul\":1300:1377   */\n    tag_57:\n        /* \"#utility.yul\":1337:1344   */\n      0x00\n        /* \"#utility.yul\":1366:1371   */\n      dup2\n        /* \"#utility.yul\":1355:1371   */\n      swap1\n      pop\n        /* \"#utility.yul\":1300:1377   */\n      swap2\n      swap1\n      pop\n      jump\t// out\n        /* \"#utility.yul\":1383:1501   */\n    tag_58:\n        /* \"#utility.yul\":1470:1494   */\n      tag_93\n        /* \"#utility.yul\":1488:1493   */\n      dup2\n        /* \"#utility.yul\":1470:1494   */\n      tag_57\n      jump\t// in\n    tag_93:\n        /* \"#utility.yul\":1465:1468   */\n      dup3\n        /* \"#utility.yul\":1458:1495   */\n      mstore\n        /* \"#utility.yul\":1383:1501   */\n      pop\n      pop\n      jump\t// out\n        /* \"#utility.yul\":1507:2282   */\n    tag_15:\n        /* \"#utility.yul\":1740:1744   */\n      0x00\n        /* \"#utility.yul\":1778:1781   */\n      0xc0\n        /* \"#utility.yul\":1767:1776   */\n      dup3\n        /* \"#utility.yul\":1763:1782   */\n      add\n        /* \"#utility.yul\":1755:1782   */\n      swap1\n      pop\n        /* \"#utility.yul\":1792:1863   */\n      tag_95\n        /* \"#utility.yul\":1860:1861   */\n      0x00\n        /* \"#utility.yul\":1849:1858   */\n      dup4\n        /* \"#utility.yul\":1845:1862   */\n      add\n        /* \"#utility.yul\":1836:1842   */\n      dup10\n        /* \"#utility.yul\":1792:1863   */\n      tag_56\n      jump\t// in\n    tag_95:\n        /* \"#utility.yul\":1873:1945   */\n      tag_96\n        /* \"#utility.yul\":1941:1943   */\n      0x20\n        /* \"#utility.yul\":1930:1939   */\n      dup4\n        /* \"#utility.yul\":1926:1944   */\n      add\n        /* \"#utility.yul\":1917:1923   */\n      dup9\n        /* \"#utility.yul\":1873:1945   */\n      tag_58\n      jump\t// in\n    tag_96:\n        /* \"#utility.yul\":1955:2027   */\n      tag_97\n        /* \"#utility.yul\":2023:2025   */\n      0x40\n        /* \"#utility.yul\":2012:2021   */\n      dup4\n        /* \"#utility.yul\":2008:2026   */\n      add\n        /* \"#utility.yul\":1999:2005   */\n      dup8\n        /* \"#utility.yul\":1955:2027   */\n      tag_58\n      jump\t// in\n    tag_97:\n        /* \"#utility.yul\":2037:2109   */\n      tag_98\n        /* \"#utility.yul\":2105:2107   */\n      0x60\n        /* \"#utility.yul\":2094:2103   */\n      dup4\n        /* \"#utility.yul\":2090:2108   */\n      add\n        /* \"#utility.yul\":2081:2087   */\n      dup7\n        /* \"#utility.yul\":2037:2109   */\n      tag_58\n      jump\t// in\n    tag_98:\n        /* \"#utility.yul\":2119:2192   */\n      tag_99\n        /* \"#utility.yul\":2187:2190   */\n      0x80\n        /* \"#utility.yul\":2176:2185   */\n      dup4\n        /* \"#utility.yul\":2172:2191   */\n      add\n        /* \"#utility.yul\":2163:2169   */\n      dup6\n        /* \"#utility.yul\":2119:2192   */\n      tag_58\n      jump\t// in\n    tag_99:\n        /* \"#utility.yul\":2202:2275   */\n      tag_100\n        /* \"#utility.yul\":2270:2273   */\n      0xa0\n        /* \"#utility.yul\":2259:2268   */\n      dup4\n        /* \"#utility.yul\":2255:2274   */\n      add\n        /* \"#utility.yul\":2246:2252   */\n      dup5\n        /* \"#utility.yul\":2202:2275   */\n      tag_58\n      jump\t// in\n    tag_100:\n        /* \"#utility.yul\":1507:2282   */\n      swap8\n      swap7\n      pop\n      pop\n      pop\n      pop\n      pop\n      pop\n      pop\n      jump\t// out\n        /* \"#utility.yul\":2288:2410   */\n    tag_59:\n        /* \"#utility.yul\":2361:2385   */\n      tag_102\n        /* \"#utility.yul\":2379:2384   */\n      dup2\n        /* \"#utility.yul\":2361:2385   */\n      tag_57\n      jump\t// in\n    tag_102:\n        /* \"#utility.yul\":2354:2359   */\n      dup2\n        /* \"#utility.yul\":2351:2386   */\n      eq\n        /* \"#utility.yul\":2341:2404   */\n      tag_103\n      jumpi\n        /* \"#utility.yul\":2400:2401   */\n      0x00\n        /* \"#utility.yul\":2397:2398   */\n      0x00\n        /* \"#utility.yul\":2390:2402   */\n      revert\n        /* \"#utility.yul\":2341:2404   */\n    tag_103:\n        /* \"#utility.yul\":2288:2410   */\n      pop\n      jump\t// out\n        /* \"#utility.yul\":2416:2555   */\n    tag_60:\n        /* \"#utility.yul\":2462:2467   */\n      0x00\n        /* \"#utility.yul\":2500:2506   */\n      dup2\n        /* \"#utility.yul\":2487:2507   */\n      calldataload\n        /* \"#utility.yul\":2478:2507   */\n      swap1\n      pop\n        /* \"#utility.yul\":2516:2549   */\n      tag_105\n        /* \"#utility.yul\":2543:2548   */\n      dup2\n        /* \"#utility.yul\":2516:2549   */\n      tag_59\n      jump\t// in\n    tag_105:\n        /* \"#utility.yul\":2416:2555   */\n      swap3\n      swap2\n      pop\n      pop\n      jump\t// out\n        /* \"#utility.yul\":2561:3180   */\n    tag_23:\n        /* \"#utility.yul\":2638:2644   */\n      0x00\n        /* \"#utility.yul\":2646:2652   */\n      0x00\n        /* \"#utility.yul\":2654:2660   */\n      0x00\n        /* \"#utility.yul\":2703:2705   */\n      0x60\n        /* \"#utility.yul\":2691:2700   */\n      dup5\n        /* \"#utility.yul\":2682:2689   */\n      dup7\n        /* \"#utility.yul\":2678:2701   */\n      sub\n        /* \"#utility.yul\":2674:2706   */\n      slt\n        /* \"#utility.yul\":2671:2790   */\n      iszero\n      tag_107\n      jumpi\n        /* \"#utility.yul\":2709:2788   */\n      tag_108\n      tag_50\n      jump\t// in\n    tag_108:\n        /* \"#utility.yul\":2671:2790   */\n    tag_107:\n        /* \"#utility.yul\":2829:2830   */\n      0x00\n        /* \"#utility.yul\":2854:2907   */\n      tag_109\n        /* \"#utility.yul\":2899:2906   */\n      dup7\n        /* \"#utility.yul\":2890:2896   */\n      dup3\n        /* \"#utility.yul\":2879:2888   */\n      dup8\n        /* \"#utility.yul\":2875:2897   */\n      add\n        /* \"#utility.yul\":2854:2907   */\n      tag_55\n      jump\t// in\n    tag_109:\n        /* \"#utility.yul\":2844:2907   */\n      swap4\n      pop\n        /* \"#utility.yul\":2800:2917   */\n      pop\n        /* \"#utility.yul\":2956:2958   */\n      0x20\n        /* \"#utility.yul\":2982:3035   */\n      tag_110\n        /* \"#utility.yul\":3027:3034   */\n      dup7\n        /* \"#utility.yul\":3018:3024   */\n      dup3\n        /* \"#utility.yul\":3007:3016   */\n      dup8\n        /* \"#utility.yul\":3003:3025   */\n      add\n        /* \"#utility.yul\":2982:3035   */\n      tag_60\n      jump\t// in\n    tag_110:\n        /* \"#utility.yul\":2972:3035   */\n      swap3\n      pop\n        /* \"#utility.yul\":2927:3045   */\n      pop\n        /* \"#utility.yul\":3084:3086   */\n      0x40\n        /* \"#utility.yul\":3110:3163   */\n      tag_111\n        /* \"#utility.yul\":3155:3162   */\n      dup7\n        /* \"#utility.yul\":3146:3152   */\n      dup3\n        /* \"#utility.yul\":3135:3144   */\n      dup8\n        /* \"#utility.yul\":3131:3153   */\n      add\n        /* \"#utility.yul\":3110:3163   */\n      tag_60\n      jump\t// in\n    tag_111:\n        /* \"#utility.yul\":3100:3163   */\n      swap2\n      pop\n        /* \"#utility.yul\":3055:3173   */\n      pop\n        /* \"#utility.yul\":2561:3180   */\n      swap3\n      pop\n      swap3\n      pop\n      swap3\n      jump\t// out\n        /* \"#utility.yul\":3186:3355   */\n    tag_61:\n        /* \"#utility.yul\":3270:3281   */\n      0x00\n        /* \"#utility.yul\":3304:3310   */\n      dup3\n        /* \"#utility.yul\":3299:3302   */\n      dup3\n        /* \"#utility.yul\":3292:3311   */\n      mstore\n        /* \"#utility.yul\":3344:3348   */\n      0x20\n        /* \"#utility.yul\":3339:3342   */\n      dup3\n        /* \"#utility.yul\":3335:3349   */\n      add\n        /* \"#utility.yul\":3320:3349   */\n      swap1\n      pop\n        /* \"#utility.yul\":3186:3355   */\n      swap3\n      swap2\n      pop\n      pop\n      jump\t// out\n        /* \"#utility.yul\":3361:3524   */\n    tag_62:\n        /* \"#utility.yul\":3501:3516   */\n      0x4e6f20706c616e20666f756e6400000000000000000000000000000000000000\n        /* \"#utility.yul\":3497:3498   */\n      0x00\n        /* \"#utility.yul\":3489:3495   */\n      dup3\n        /* \"#utility.yul\":3485:3499   */\n      add\n        /* \"#utility.yul\":3478:3517   */\n      mstore\n        /* \"#utility.yul\":3361:3524   */\n      pop\n      jump\t// out\n        /* \"#utility.yul\":3530:3896   */\n    tag_63:\n        /* \"#utility.yul\":3672:3675   */\n      0x00\n        /* \"#utility.yul\":3693:3760   */\n      tag_115\n        /* \"#utility.yul\":3757:3759   */\n      0x0d\n        /* \"#utility.yul\":3752:3755   */\n      dup4\n        /* \"#utility.yul\":3693:3760   */\n      tag_61\n      jump\t// in\n    tag_115:\n        /* \"#utility.yul\":3686:3760   */\n      swap2\n      pop\n        /* \"#utility.yul\":3769:3862   */\n      tag_116\n        /* \"#utility.yul\":3858:3861   */\n      dup3\n        /* \"#utility.yul\":3769:3862   */\n      tag_62\n      jump\t// in\n    tag_116:\n        /* \"#utility.yul\":3887:3889   */\n      0x20\n        /* \"#utility.yul\":3882:3885   */\n      dup3\n        /* \"#utility.yul\":3878:3890   */\n      add\n        /* \"#utility.yul\":3871:3890   */\n      swap1\n      pop\n        /* \"#utility.yul\":3530:3896   */\n      swap2\n      swap1\n      pop\n      jump\t// out\n        /* \"#utility.yul\":3902:4321   */\n    tag_28:\n        /* \"#utility.yul\":4068:4072   */\n      0x00\n        /* \"#utility.yul\":4106:4108   */\n      0x20\n        /* \"#utility.yul\":4095:4104   */\n      dup3\n        /* \"#utility.yul\":4091:4109   */\n      add\n        /* \"#utility.yul\":4083:4109   */\n      swap1\n      pop\n        /* \"#utility.yul\":4155:4164   */\n      dup2\n        /* \"#utility.yul\":4149:4153   */\n      dup2\n        /* \"#utility.yul\":4145:4165   */\n      sub\n        /* \"#utility.yul\":4141:4142   */\n      0x00\n        /* \"#utility.yul\":4130:4139   */\n      dup4\n        /* \"#utility.yul\":4126:4143   */\n      add\n        /* \"#utility.yul\":4119:4166   */\n      mstore\n        /* \"#utility.yul\":4183:4314   */\n      tag_118\n        /* \"#utility.yul\":4309:4313   */\n      dup2\n        /* \"#utility.yul\":4183:4314   */\n      tag_63\n      jump\t// in\n    tag_118:\n        /* \"#utility.yul\":4175:4314   */\n      swap1\n      pop\n        /* \"#utility.yul\":3902:4321   */\n      swap2\n      swap1\n      pop\n      jump\t// out\n        /* \"#utility.yul\":4327:4497   */\n    tag_64:\n        /* \"#utility.yul\":4467:4489   */\n      0x496e73756666696369656e742062616c616e6365000000000000000000000000\n        /* \"#utility.yul\":4463:4464   */\n      0x00\n        /* \"#utility.yul\":4455:4461   */\n      dup3\n        /* \"#utility.yul\":4451:4465   */\n      add\n        /* \"#utility.yul\":4444:4490   */\n      mstore\n        /* \"#utility.yul\":4327:4497   */\n      pop\n      jump\t// out\n        /* \"#utility.yul\":4503:4869   */\n    tag_65:\n        /* \"#utility.yul\":4645:4648   */\n      0x00\n        /* \"#utility.yul\":4666:4733   */\n      tag_121\n        /* \"#utility.yul\":4730:4732   */\n      0x14\n        /* \"#utility.yul\":4725:4728   */\n      dup4\n        /* \"#utility.yul\":4666:4733   */\n      tag_61\n      jump\t// in\n    tag_121:\n        /* \"#utility.yul\":4659:4733   */\n      swap2\n      pop\n        /* \"#utility.yul\":4742:4835   */\n      tag_122\n        /* \"#utility.yul\":4831:4834   */\n      dup3\n        /* \"#utility.yul\":4742:4835   */\n      tag_64\n      jump\t// in\n    tag_122:\n        /* \"#utility.yul\":4860:4862   */\n      0x20\n        /* \"#utility.yul\":4855:4858   */\n      dup3\n        /* \"#utility.yul\":4851:4863   */\n      add\n        /* \"#utility.yul\":4844:4863   */\n      swap1\n      pop\n        /* \"#utility.yul\":4503:4869   */\n      swap2\n      swap1\n      pop\n      jump\t// out\n        /* \"#utility.yul\":4875:5294   */\n    tag_31:\n        /* \"#utility.yul\":5041:5045   */\n      0x00\n        /* \"#utility.yul\":5079:5081   */\n      0x20\n        /* \"#utility.yul\":5068:5077   */\n      dup3\n        /* \"#utility.yul\":5064:5082   */\n      add\n        /* \"#utility.yul\":5056:5082   */\n      swap1\n      pop\n        /* \"#utility.yul\":5128:5137   */\n      dup2\n        /* \"#utility.yul\":5122:5126   */\n      dup2\n        /* \"#utility.yul\":5118:5138   */\n      sub\n        /* \"#utility.yul\":5114:5115   */\n      0x00\n        /* \"#utility.yul\":5103:5112   */\n      dup4\n        /* \"#utility.yul\":5099:5116   */\n      add\n        /* \"#utility.yul\":5092:5139   */\n      mstore\n        /* \"#utility.yul\":5156:5287   */\n      tag_124\n        /* \"#utility.yul\":5282:5286   */\n      dup2\n        /* \"#utility.yul\":5156:5287   */\n      tag_65\n      jump\t// in\n    tag_124:\n        /* \"#utility.yul\":5148:5287   */\n      swap1\n      pop\n        /* \"#utility.yul\":4875:5294   */\n      swap2\n      swap1\n      pop\n      jump\t// out\n        /* \"#utility.yul\":5300:5480   */\n    tag_66:\n        /* \"#utility.yul\":5348:5425   */\n      0x4e487b7100000000000000000000000000000000000000000000000000000000\n        /* \"#utility.yul\":5345:5346   */\n      0x00\n        /* \"#utility.yul\":5338:5426   */\n      mstore\n        /* \"#utility.yul\":5445:5449   */\n      0x11\n        /* \"#utility.yul\":5442:5443   */\n      0x04\n        /* \"#utility.yul\":5435:5450   */\n      mstore\n        /* \"#utility.yul\":5469:5473   */\n      0x24\n        /* \"#utility.yul\":5466:5467   */\n      0x00\n        /* \"#utility.yul\":5459:5474   */\n      revert\n        /* \"#utility.yul\":5486:5677   */\n    tag_33:\n        /* \"#utility.yul\":5526:5529   */\n      0x00\n        /* \"#utility.yul\":5545:5565   */\n      tag_127\n        /* \"#utility.yul\":5563:5564   */\n      dup3\n        /* \"#utility.yul\":5545:5565   */\n      tag_57\n      jump\t// in\n    tag_127:\n        /* \"#utility.yul\":5540:5565   */\n      swap2\n      pop\n        /* \"#utility.yul\":5579:5599   */\n      tag_128\n        /* \"#utility.yul\":5597:5598   */\n      dup4\n        /* \"#utility.yul\":5579:5599   */\n      tag_57\n      jump\t// in\n    tag_128:\n        /* \"#utility.yul\":5574:5599   */\n      swap3\n      pop\n        /* \"#utility.yul\":5622:5623   */\n      dup3\n        /* \"#utility.yul\":5619:5620   */\n      dup3\n        /* \"#utility.yul\":5615:5624   */\n      add\n        /* \"#utility.yul\":5608:5624   */\n      swap1\n      pop\n        /* \"#utility.yul\":5643:5646   */\n      dup1\n        /* \"#utility.yul\":5640:5641   */\n      dup3\n        /* \"#utility.yul\":5637:5647   */\n      gt\n        /* \"#utility.yul\":5634:5670   */\n      iszero\n      tag_129\n      jumpi\n        /* \"#utility.yul\":5650:5668   */\n      tag_130\n      tag_66\n      jump\t// in\n    tag_130:\n        /* \"#utility.yul\":5634:5670   */\n    tag_129:\n        /* \"#utility.yul\":5486:5677   */\n      swap3\n      swap2\n      pop\n      pop\n      jump\t// out\n        /* \"#utility.yul\":5683:5842   */\n    tag_67:\n        /* \"#utility.yul\":5823:5834   */\n      0x546f6f206561726c790000000000000000000000000000000000000000000000\n        /* \"#utility.yul\":5819:5820   */\n      0x00\n        /* \"#utility.yul\":5811:5817   */\n      dup3\n        /* \"#utility.yul\":5807:5821   */\n      add\n        /* \"#utility.yul\":5800:5835   */\n      mstore\n        /* \"#utility.yul\":5683:5842   */\n      pop\n      jump\t// out\n        /* \"#utility.yul\":5848:6213   */\n    tag_68:\n        /* \"#utility.yul\":5990:5993   */\n      0x00\n        /* \"#utility.yul\":6011:6077   */\n      tag_133\n        /* \"#utility.yul\":6075:6076   */\n      0x09\n        /* \"#utility.yul\":6070:6073   */\n      dup4\n        /* \"#utility.yul\":6011:6077   */\n      tag_61\n      jump\t// in\n    tag_133:\n        /* \"#utility.yul\":6004:6077   */\n      swap2\n      pop\n        /* \"#utility.yul\":6086:6179   */\n      tag_134\n        /* \"#utility.yul\":6175:6178   */\n      dup3\n        /* \"#utility.yul\":6086:6179   */\n      tag_67\n      jump\t// in\n    tag_134:\n        /* \"#utility.yul\":6204:6206   */\n      0x20\n        /* \"#utility.yul\":6199:6202   */\n      dup3\n        /* \"#utility.yul\":6195:6207   */\n      add\n        /* \"#utility.yul\":6188:6207   */\n      swap1\n      pop\n        /* \"#utility.yul\":5848:6213   */\n      swap2\n      swap1\n      pop\n      jump\t// out\n        /* \"#utility.yul\":6219:6638   */\n    tag_36:\n        /* \"#utility.yul\":6385:6389   */\n      0x00\n        /* \"#utility.yul\":6423:6425   */\n      0x20\n        /* \"#utility.yul\":6412:6421   */\n      dup3\n        /* \"#utility.yul\":6408:6426   */\n      add\n        /* \"#utility.yul\":6400:6426   */\n      swap1\n      pop\n        /* \"#utility.yul\":6472:6481   */\n      dup2\n        /* \"#utility.yul\":6466:6470   */\n      dup2\n        /* \"#utility.yul\":6462:6482   */\n      sub\n        /* \"#utility.yul\":6458:6459   */\n      0x00\n        /* \"#utility.yul\":6447:6456   */\n      dup4\n        /* \"#utility.yul\":6443:6460   */\n      add\n        /* \"#utility.yul\":6436:6483   */\n      mstore\n        /* \"#utility.yul\":6500:6631   */\n      tag_136\n        /* \"#utility.yul\":6626:6630   */\n      dup2\n        /* \"#utility.yul\":6500:6631   */\n      tag_68\n      jump\t// in\n    tag_136:\n        /* \"#utility.yul\":6492:6631   */\n      swap1\n      pop\n        /* \"#utility.yul\":6219:6638   */\n      swap2\n      swap1\n      pop\n      jump\t// out\n        /* \"#utility.yul\":6644:6838   */\n    tag_38:\n        /* \"#utility.yul\":6684:6688   */\n      0x00\n        /* \"#utility.yul\":6704:6724   */\n      tag_138\n        /* \"#utility.yul\":6722:6723   */\n      dup3\n        /* \"#utility.yul\":6704:6724   */\n      tag_57\n      jump\t// in\n    tag_138:\n        /* \"#utility.yul\":6699:6724   */\n      swap2\n      pop\n        /* \"#utility.yul\":6738:6758   */\n      tag_139\n        /* \"#utility.yul\":6756:6757   */\n      dup4\n        /* \"#utility.yul\":6738:6758   */\n      tag_57\n      jump\t// in\n    tag_139:\n        /* \"#utility.yul\":6733:6758   */\n      swap3\n      pop\n        /* \"#utility.yul\":6782:6783   */\n      dup3\n        /* \"#utility.yul\":6779:6780   */\n      dup3\n        /* \"#utility.yul\":6775:6784   */\n      sub\n        /* \"#utility.yul\":6767:6784   */\n      swap1\n      pop\n        /* \"#utility.yul\":6806:6807   */\n      dup2\n        /* \"#utility.yul\":6800:6804   */\n      dup2\n        /* \"#utility.yul\":6797:6808   */\n      gt\n        /* \"#utility.yul\":6794:6831   */\n      iszero\n      tag_140\n      jumpi\n        /* \"#utility.yul\":6811:6829   */\n      tag_141\n      tag_66\n      jump\t// in\n    tag_141:\n        /* \"#utility.yul\":6794:6831   */\n    tag_140:\n        /* \"#utility.yul\":6644:6838   */\n      swap3\n      swap2\n      pop\n      pop\n      jump\t// out\n        /* \"#utility.yul\":6844:7015   */\n    tag_69:\n        /* \"#utility.yul\":6984:7007   */\n      0x53656e642045544820746f2066756e6420706c616e0000000000000000000000\n        /* \"#utility.yul\":6980:6981   */\n      0x00\n        /* \"#utility.yul\":6972:6978   */\n      dup3\n        /* \"#utility.yul\":6968:6982   */\n      add\n        /* \"#utility.yul\":6961:7008   */\n      mstore\n        /* \"#utility.yul\":6844:7015   */\n      pop\n      jump\t// out\n        /* \"#utility.yul\":7021:7387   */\n    tag_70:\n        /* \"#utility.yul\":7163:7166   */\n      0x00\n        /* \"#utility.yul\":7184:7251   */\n      tag_144\n        /* \"#utility.yul\":7248:7250   */\n      0x15\n        /* \"#utility.yul\":7243:7246   */\n      dup4\n        /* \"#utility.yul\":7184:7251   */\n      tag_61\n      jump\t// in\n    tag_144:\n        /* \"#utility.yul\":7177:7251   */\n      swap2\n      pop\n        /* \"#utility.yul\":7260:7353   */\n      tag_145\n        /* \"#utility.yul\":7349:7352   */\n      dup3\n        /* \"#utility.yul\":7260:7353   */\n      tag_69\n      jump\t// in\n    tag_145:\n        /* \"#utility.yul\":7378:7380   */\n      0x20\n        /* \"#utility.yul\":7373:7376   */\n      dup3\n        /* \"#utility.yul\":7369:7381   */\n      add\n        /* \"#utility.yul\":7362:7381   */\n      swap1\n      pop\n        /* \"#utility.yul\":7021:7387   */\n      swap2\n      swap1\n      pop\n      jump\t// out\n        /* \"#utility.yul\":7393:7812   */\n    tag_45:\n        /* \"#utility.yul\":7559:7563   */\n      0x00\n        /* \"#utility.yul\":7597:7599   */\n      0x20\n        /* \"#utility.yul\":7586:7595   */\n      dup3\n        /* \"#utility.yul\":7582:7600   */\n      add\n        /* \"#utility.yul\":7574:7600   */\n      swap1\n      pop\n        /* \"#utility.yul\":7646:7655   */\n      dup2\n        /* \"#utility.yul\":7640:7644   */\n      dup2\n        /* \"#utility.yul\":7636:7656   */\n      sub\n        /* \"#utility.yul\":7632:7633   */\n      0x00\n        /* \"#utility.yul\":7621:7630   */\n      dup4\n        /* \"#utility.yul\":7617:7634   */\n      add\n        /* \"#utility.yul\":7610:7657   */\n      mstore\n        /* \"#utility.yul\":7674:7805   */\n      tag_147\n        /* \"#utility.yul\":7800:7804   */\n      dup2\n        /* \"#utility.yul\":7674:7805   */\n      tag_70\n      jump\t// in\n    tag_147:\n        /* \"#utility.yul\":7666:7805   */\n      swap1\n      pop\n        /* \"#utility.yul\":7393:7812   */\n      swap2\n      swap1\n      pop\n      jump\t// out\n        /* \"#utility.yul\":7818:7979   */\n    tag_71:\n        /* \"#utility.yul\":7958:7971   */\n      0x506c616e20657869737473000000000000000000000000000000000000000000\n        /* \"#utility.yul\":7954:7955   */\n      0x00\n        /* \"#utility.yul\":7946:7952   */\n      dup3\n        /* \"#utility.yul\":7942:7956   */\n      add\n        /* \"#utility.yul\":7935:7972   */\n      mstore\n        /* \"#utility.yul\":7818:7979   */\n      pop\n      jump\t// out\n        /* \"#utility.yul\":7985:8351   */\n    tag_72:\n        /* \"#utility.yul\":8127:8130   */\n      0x00\n        /* \"#utility.yul\":8148:8215   */\n      tag_150\n        /* \"#utility.yul\":8212:8214   */\n      0x0b\n        /* \"#utility.yul\":8207:8210   */\n      dup4\n        /* \"#utility.yul\":8148:8215   */\n      tag_61\n      jump\t// in\n    tag_150:\n        /* \"#utility.yul\":8141:8215   */\n      swap2\n      pop\n        /* \"#utility.yul\":8224:8317   */\n      tag_151\n        /* \"#utility.yul\":8313:8316   */\n      dup3\n        /* \"#utility.yul\":8224:8317   */\n      tag_71\n      jump\t// in\n    tag_151:\n        /* \"#utility.yul\":8342:8344   */\n      0x20\n        /* \"#utility.yul\":8337:8340   */\n      dup3\n        /* \"#utility.yul\":8333:8345   */\n      add\n        /* \"#utility.yul\":8326:8345   */\n      swap1\n      pop\n        /* \"#utility.yul\":7985:8351   */\n      swap2\n      swap1\n      pop\n      jump\t// out\n        /* \"#utility.yul\":8357:8776   */\n    tag_48:\n        /* \"#utility.yul\":8523:8527   */\n      0x00\n        /* \"#utility.yul\":8561:8563   */\n      0x20\n        /* \"#utility.yul\":8550:8559   */\n      dup3\n        /* \"#utility.yul\":8546:8564   */\n      add\n        /* \"#utility.yul\":8538:8564   */\n      swap1\n      pop\n        /* \"#utility.yul\":8610:8619   */\n      dup2\n        /* \"#utility.yul\":8604:8608   */\n      dup2\n        /* \"#utility.yul\":8600:8620   */\n      sub\n        /* \"#utility.yul\":8596:8597   */\n      0x00\n        /* \"#utility.yul\":8585:8594   */\n      dup4\n        /* \"#utility.yul\":8581:8598   */\n      add\n        /* \"#utility.yul\":8574:8621   */\n      mstore\n        /* \"#utility.yul\":8638:8769   */\n      tag_153\n        /* \"#utility.yul\":8764:8768   */\n      dup2\n        /* \"#utility.yul\":8638:8769   */\n      tag_72\n      jump\t// in\n    tag_153:\n        /* \"#utility.yul\":8630:8769   */\n      swap1\n      pop\n        /* \"#utility.yul\":8357:8776   */\n      swap2\n      swap1\n      pop\n      jump\t// out\n\n    auxdata: 0xa2646970667358221220ede757633424592e6e75af5f4cfaa7b03bc7975a7a58044f7f1c29320d50323164736f6c634300081e0033\n}\n",
				"bytecode": {
					"linkReferences": {},
					"object": "6080604052348015600e575f5ffd5b50610aab8061001c5f395ff3fe60806040526004361061003e575f3560e01c80631259b484146100425780637cb22aaf1461005857806386d86d8414610099578063e95fc90f146100da575b5f5ffd5b34801561004d575f5ffd5b506100566100f6565b005b348015610063575f5ffd5b5061007e6004803603810190610079919061069f565b6102d8565b604051610090969594939291906106f1565b60405180910390f35b3480156100a4575f5ffd5b506100bf60048036038101906100ba919061069f565b6103e1565b6040516100d1969594939291906106f1565b60405180910390f35b6100f460048036038101906100ef919061077a565b610437565b005b5f5f5f3373ffffffffffffffffffffffffffffffffffffffff1673ffffffffffffffffffffffffffffffffffffffff1681526020019081526020015f2090505f73ffffffffffffffffffffffffffffffffffffffff16815f015f9054906101000a900473ffffffffffffffffffffffffffffffffffffffff1673ffffffffffffffffffffffffffffffffffffffff16036101c5576040517f08c379a00000000000000000000000000000000000000000000000000000000081526004016101bc90610824565b60405180910390fd5b806002015481600501541015610210576040517f08c379a00000000000000000000000000000000000000000000000000000000081526004016102079061088c565b60405180910390fd5b8060030154816004015461022491906108d7565b421015610266576040517f08c379a000000000000000000000000000000000000000000000000000000000815260040161025d90610954565b60405180910390fd5b4281600401819055508060020154816005015f8282546102869190610972565b925050819055503373ffffffffffffffffffffffffffffffffffffffff166108fc826002015490811502906040515f60405180830381858888f193505050501580156102d4573d5f5f3e3d5ffd5b5050565b5f5f5f5f5f5f5f5f5f8973ffffffffffffffffffffffffffffffffffffffff1673ffffffffffffffffffffffffffffffffffffffff1681526020019081526020015f206040518060c00160405290815f82015f9054906101000a900473ffffffffffffffffffffffffffffffffffffffff1673ffffffffffffffffffffffffffffffffffffffff1673ffffffffffffffffffffffffffffffffffffffff168152602001600182015481526020016002820154815260200160038201548152602001600482015481526020016005820154815250509050805f015181602001518260400151836060015184608001518560a001519650965096509650965096505091939550919395565b5f602052805f5260405f205f91509050805f015f9054906101000a900473ffffffffffffffffffffffffffffffffffffffff16908060010154908060020154908060030154908060040154908060050154905086565b5f3411610479576040517f08c379a0000000000000000000000000000000000000000000000000000000008152600401610470906109ef565b60405180910390fd5b5f73ffffffffffffffffffffffffffffffffffffffff165f5f8573ffffffffffffffffffffffffffffffffffffffff1673ffffffffffffffffffffffffffffffffffffffff1681526020019081526020015f205f015f9054906101000a900473ffffffffffffffffffffffffffffffffffffffff1673ffffffffffffffffffffffffffffffffffffffff1614610544576040517f08c379a000000000000000000000000000000000000000000000000000000000815260040161053b90610a57565b60405180910390fd5b6040518060c001604052803373ffffffffffffffffffffffffffffffffffffffff168152602001348152602001838152602001828152602001428152602001348152505f5f8573ffffffffffffffffffffffffffffffffffffffff1673ffffffffffffffffffffffffffffffffffffffff1681526020019081526020015f205f820151815f015f6101000a81548173ffffffffffffffffffffffffffffffffffffffff021916908373ffffffffffffffffffffffffffffffffffffffff1602179055506020820151816001015560408201518160020155606082015181600301556080820151816004015560a08201518160050155905050505050565b5f5ffd5b5f73ffffffffffffffffffffffffffffffffffffffff82169050919050565b5f61066e82610645565b9050919050565b61067e81610664565b8114610688575f5ffd5b50565b5f8135905061069981610675565b92915050565b5f602082840312156106b4576106b3610641565b5b5f6106c18482850161068b565b91505092915050565b6106d381610664565b82525050565b5f819050919050565b6106eb816106d9565b82525050565b5f60c0820190506107045f8301896106ca565b61071160208301886106e2565b61071e60408301876106e2565b61072b60608301866106e2565b61073860808301856106e2565b61074560a08301846106e2565b979650505050505050565b610759816106d9565b8114610763575f5ffd5b50565b5f8135905061077481610750565b92915050565b5f5f5f6060848603121561079157610790610641565b5b5f61079e8682870161068b565b93505060206107af86828701610766565b92505060406107c086828701610766565b9150509250925092565b5f82825260208201905092915050565b7f4e6f20706c616e20666f756e64000000000000000000000000000000000000005f82015250565b5f61080e600d836107ca565b9150610819826107da565b602082019050919050565b5f6020820190508181035f83015261083b81610802565b9050919050565b7f496e73756666696369656e742062616c616e63650000000000000000000000005f82015250565b5f6108766014836107ca565b915061088182610842565b602082019050919050565b5f6020820190508181035f8301526108a38161086a565b9050919050565b7f4e487b71000000000000000000000000000000000000000000000000000000005f52601160045260245ffd5b5f6108e1826106d9565b91506108ec836106d9565b9250828201905080821115610904576109036108aa565b5b92915050565b7f546f6f206561726c7900000000000000000000000000000000000000000000005f82015250565b5f61093e6009836107ca565b91506109498261090a565b602082019050919050565b5f6020820190508181035f83015261096b81610932565b9050919050565b5f61097c826106d9565b9150610987836106d9565b925082820390508181111561099f5761099e6108aa565b5b92915050565b7f53656e642045544820746f2066756e6420706c616e00000000000000000000005f82015250565b5f6109d96015836107ca565b91506109e4826109a5565b602082019050919050565b5f6020820190508181035f830152610a06816109cd565b9050919050565b7f506c616e206578697374730000000000000000000000000000000000000000005f82015250565b5f610a41600b836107ca565b9150610a4c82610a0d565b602082019050919050565b5f6020820190508181035f830152610a6e81610a35565b905091905056fea2646970667358221220ede757633424592e6e75af5f4cfaa7b03bc7975a7a58044f7f1c29320d50323164736f6c634300081e0033",
					"opcodes": "PUSH1 0x80 PUSH1 0x40 MSTORE CALLVALUE DUP1 ISZERO PUSH1 0xE JUMPI PUSH0 PUSH0 REVERT JUMPDEST POP PUSH2 0xAAB DUP1 PUSH2 0x1C PUSH0 CODECOPY PUSH0 RETURN INVALID PUSH1 0x80 PUSH1 0x40 MSTORE PUSH1 0x4 CALLDATASIZE LT PUSH2 0x3E JUMPI PUSH0 CALLDATALOAD PUSH1 0xE0 SHR DUP1 PUSH4 0x1259B484 EQ PUSH2 0x42 JUMPI DUP1 PUSH4 0x7CB22AAF EQ PUSH2 0x58 JUMPI DUP1 PUSH4 0x86D86D84 EQ PUSH2 0x99 JUMPI DUP1 PUSH4 0xE95FC90F EQ PUSH2 0xDA JUMPI JUMPDEST PUSH0 PUSH0 REVERT JUMPDEST CALLVALUE DUP1 ISZERO PUSH2 0x4D JUMPI PUSH0 PUSH0 REVERT JUMPDEST POP PUSH2 0x56 PUSH2 0xF6 JUMP JUMPDEST STOP JUMPDEST CALLVALUE DUP1 ISZERO PUSH2 0x63 JUMPI PUSH0 PUSH0 REVERT JUMPDEST POP PUSH2 0x7E PUSH1 0x4 DUP1 CALLDATASIZE SUB DUP2 ADD SWAP1 PUSH2 0x79 SWAP2 SWAP1 PUSH2 0x69F JUMP JUMPDEST PUSH2 0x2D8 JUMP JUMPDEST PUSH1 0x40 MLOAD PUSH2 0x90 SWAP7 SWAP6 SWAP5 SWAP4 SWAP3 SWAP2 SWAP1 PUSH2 0x6F1 JUMP JUMPDEST PUSH1 0x40 MLOAD DUP1 SWAP2 SUB SWAP1 RETURN JUMPDEST CALLVALUE DUP1 ISZERO PUSH2 0xA4 JUMPI PUSH0 PUSH0 REVERT JUMPDEST POP PUSH2 0xBF PUSH1 0x4 DUP1 CALLDATASIZE SUB DUP2 ADD SWAP1 PUSH2 0xBA SWAP2 SWAP1 PUSH2 0x69F JUMP JUMPDEST PUSH2 0x3E1 JUMP JUMPDEST PUSH1 0x40 MLOAD PUSH2 0xD1 SWAP7 SWAP6 SWAP5 SWAP4 SWAP3 SWAP2 SWAP1 PUSH2 0x6F1 JUMP JUMPDEST PUSH1 0x40 MLOAD DUP1 SWAP2 SUB SWAP1 RETURN JUMPDEST PUSH2 0xF4 PUSH1 0x4 DUP1 CALLDATASIZE SUB DUP2 ADD SWAP1 PUSH2 0xEF SWAP2 SWAP1 PUSH2 0x77A JUMP JUMPDEST PUSH2 0x437 JUMP JUMPDEST STOP JUMPDEST PUSH0 PUSH0 PUSH0 CALLER PUSH20 0xFFFFFFFFFFFFFFFFFFFFFFFFFFFFFFFFFFFFFFFF AND PUSH20 0xFFFFFFFFFFFFFFFFFFFFFFFFFFFFFFFFFFFFFFFF AND DUP2 MSTORE PUSH1 0x20 ADD SWAP1 DUP2 MSTORE PUSH1 0x20 ADD PUSH0 KECCAK256 SWAP1 POP PUSH0 PUSH20 0xFFFFFFFFFFFFFFFFFFFFFFFFFFFFFFFFFFFFFFFF AND DUP2 PUSH0 ADD PUSH0 SWAP1 SLOAD SWAP1 PUSH2 0x100 EXP SWAP1 DIV PUSH20 0xFFFFFFFFFFFFFFFFFFFFFFFFFFFFFFFFFFFFFFFF AND PUSH20 0xFFFFFFFFFFFFFFFFFFFFFFFFFFFFFFFFFFFFFFFF AND SUB PUSH2 0x1C5 JUMPI PUSH1 0x40 MLOAD PUSH32 0x8C379A000000000000000000000000000000000000000000000000000000000 DUP2 MSTORE PUSH1 0x4 ADD PUSH2 0x1BC SWAP1 PUSH2 0x824 JUMP JUMPDEST PUSH1 0x40 MLOAD DUP1 SWAP2 SUB SWAP1 REVERT JUMPDEST DUP1 PUSH1 0x2 ADD SLOAD DUP2 PUSH1 0x5 ADD SLOAD LT ISZERO PUSH2 0x210 JUMPI PUSH1 0x40 MLOAD PUSH32 0x8C379A000000000000000000000000000000000000000000000000000000000 DUP2 MSTORE PUSH1 0x4 ADD PUSH2 0x207 SWAP1 PUSH2 0x88C JUMP JUMPDEST PUSH1 0x40 MLOAD DUP1 SWAP2 SUB SWAP1 REVERT JUMPDEST DUP1 PUSH1 0x3 ADD SLOAD DUP2 PUSH1 0x4 ADD SLOAD PUSH2 0x224 SWAP2 SWAP1 PUSH2 0x8D7 JUMP JUMPDEST TIMESTAMP LT ISZERO PUSH2 0x266 JUMPI PUSH1 0x40 MLOAD PUSH32 0x8C379A000000000000000000000000000000000000000000000000000000000 DUP2 MSTORE PUSH1 0x4 ADD PUSH2 0x25D SWAP1 PUSH2 0x954 JUMP JUMPDEST PUSH1 0x40 MLOAD DUP1 SWAP2 SUB SWAP1 REVERT JUMPDEST TIMESTAMP DUP2 PUSH1 0x4 ADD DUP2 SWAP1 SSTORE POP DUP1 PUSH1 0x2 ADD SLOAD DUP2 PUSH1 0x5 ADD PUSH0 DUP3 DUP3 SLOAD PUSH2 0x286 SWAP2 SWAP1 PUSH2 0x972 JUMP JUMPDEST SWAP3 POP POP DUP2 SWAP1 SSTORE POP CALLER PUSH20 0xFFFFFFFFFFFFFFFFFFFFFFFFFFFFFFFFFFFFFFFF AND PUSH2 0x8FC DUP3 PUSH1 0x2 ADD SLOAD SWAP1 DUP2 ISZERO MUL SWAP1 PUSH1 0x40 MLOAD PUSH0 PUSH1 0x40 MLOAD DUP1 DUP4 SUB DUP2 DUP6 DUP9 DUP9 CALL SWAP4 POP POP POP POP ISZERO DUP1 ISZERO PUSH2 0x2D4 JUMPI RETURNDATASIZE PUSH0 PUSH0 RETURNDATACOPY RETURNDATASIZE PUSH0 REVERT JUMPDEST POP POP JUMP JUMPDEST PUSH0 PUSH0 PUSH0 PUSH0 PUSH0 PUSH0 PUSH0 PUSH0 PUSH0 DUP10 PUSH20 0xFFFFFFFFFFFFFFFFFFFFFFFFFFFFFFFFFFFFFFFF AND PUSH20 0xFFFFFFFFFFFFFFFFFFFFFFFFFFFFFFFFFFFFFFFF AND DUP2 MSTORE PUSH1 0x20 ADD SWAP1 DUP2 MSTORE PUSH1 0x20 ADD PUSH0 KECCAK256 PUSH1 0x40 MLOAD DUP1 PUSH1 0xC0 ADD PUSH1 0x40 MSTORE SWAP1 DUP2 PUSH0 DUP3 ADD PUSH0 SWAP1 SLOAD SWAP1 PUSH2 0x100 EXP SWAP1 DIV PUSH20 0xFFFFFFFFFFFFFFFFFFFFFFFFFFFFFFFFFFFFFFFF AND PUSH20 0xFFFFFFFFFFFFFFFFFFFFFFFFFFFFFFFFFFFFFFFF AND PUSH20 0xFFFFFFFFFFFFFFFFFFFFFFFFFFFFFFFFFFFFFFFF AND DUP2 MSTORE PUSH1 0x20 ADD PUSH1 0x1 DUP3 ADD SLOAD DUP2 MSTORE PUSH1 0x20 ADD PUSH1 0x2 DUP3 ADD SLOAD DUP2 MSTORE PUSH1 0x20 ADD PUSH1 0x3 DUP3 ADD SLOAD DUP2 MSTORE PUSH1 0x20 ADD PUSH1 0x4 DUP3 ADD SLOAD DUP2 MSTORE PUSH1 0x20 ADD PUSH1 0x5 DUP3 ADD SLOAD DUP2 MSTORE POP POP SWAP1 POP DUP1 PUSH0 ADD MLOAD DUP2 PUSH1 0x20 ADD MLOAD DUP3 PUSH1 0x40 ADD MLOAD DUP4 PUSH1 0x60 ADD MLOAD DUP5 PUSH1 0x80 ADD MLOAD DUP6 PUSH1 0xA0 ADD MLOAD SWAP7 POP SWAP7 POP SWAP7 POP SWAP7 POP SWAP7 POP SWAP7 POP POP SWAP2 SWAP4 SWAP6 POP SWAP2 SWAP4 SWAP6 JUMP JUMPDEST PUSH0 PUSH1 0x20 MSTORE DUP1 PUSH0 MSTORE PUSH1 0x40 PUSH0 KECCAK256 PUSH0 SWAP2 POP SWAP1 POP DUP1 PUSH0 ADD PUSH0 SWAP1 SLOAD SWAP1 PUSH2 0x100 EXP SWAP1 DIV PUSH20 0xFFFFFFFFFFFFFFFFFFFFFFFFFFFFFFFFFFFFFFFF AND SWAP1 DUP1 PUSH1 0x1 ADD SLOAD SWAP1 DUP1 PUSH1 0x2 ADD SLOAD SWAP1 DUP1 PUSH1 0x3 ADD SLOAD SWAP1 DUP1 PUSH1 0x4 ADD SLOAD SWAP1 DUP1 PUSH1 0x5 ADD SLOAD SWAP1 POP DUP7 JUMP JUMPDEST PUSH0 CALLVALUE GT PUSH2 0x479 JUMPI PUSH1 0x40 MLOAD PUSH32 0x8C379A000000000000000000000000000000000000000000000000000000000 DUP2 MSTORE PUSH1 0x4 ADD PUSH2 0x470 SWAP1 PUSH2 0x9EF JUMP JUMPDEST PUSH1 0x40 MLOAD DUP1 SWAP2 SUB SWAP1 REVERT JUMPDEST PUSH0 PUSH20 0xFFFFFFFFFFFFFFFFFFFFFFFFFFFFFFFFFFFFFFFF AND PUSH0 PUSH0 DUP6 PUSH20 0xFFFFFFFFFFFFFFFFFFFFFFFFFFFFFFFFFFFFFFFF AND PUSH20 0xFFFFFFFFFFFFFFFFFFFFFFFFFFFFFFFFFFFFFFFF AND DUP2 MSTORE PUSH1 0x20 ADD SWAP1 DUP2 MSTORE PUSH1 0x20 ADD PUSH0 KECCAK256 PUSH0 ADD PUSH0 SWAP1 SLOAD SWAP1 PUSH2 0x100 EXP SWAP1 DIV PUSH20 0xFFFFFFFFFFFFFFFFFFFFFFFFFFFFFFFFFFFFFFFF AND PUSH20 0xFFFFFFFFFFFFFFFFFFFFFFFFFFFFFFFFFFFFFFFF AND EQ PUSH2 0x544 JUMPI PUSH1 0x40 MLOAD PUSH32 0x8C379A000000000000000000000000000000000000000000000000000000000 DUP2 MSTORE PUSH1 0x4 ADD PUSH2 0x53B SWAP1 PUSH2 0xA57 JUMP JUMPDEST PUSH1 0x40 MLOAD DUP1 SWAP2 SUB SWAP1 REVERT JUMPDEST PUSH1 0x40 MLOAD DUP1 PUSH1 0xC0 ADD PUSH1 0x40 MSTORE DUP1 CALLER PUSH20 0xFFFFFFFFFFFFFFFFFFFFFFFFFFFFFFFFFFFFFFFF AND DUP2 MSTORE PUSH1 0x20 ADD CALLVALUE DUP2 MSTORE PUSH1 0x20 ADD DUP4 DUP2 MSTORE PUSH1 0x20 ADD DUP3 DUP2 MSTORE PUSH1 0x20 ADD TIMESTAMP DUP2 MSTORE PUSH1 0x20 ADD CALLVALUE DUP2 MSTORE POP PUSH0 PUSH0 DUP6 PUSH20 0xFFFFFFFFFFFFFFFFFFFFFFFFFFFFFFFFFFFFFFFF AND PUSH20 0xFFFFFFFFFFFFFFFFFFFFFFFFFFFFFFFFFFFFFFFF AND DUP2 MSTORE PUSH1 0x20 ADD SWAP1 DUP2 MSTORE PUSH1 0x20 ADD PUSH0 KECCAK256 PUSH0 DUP3 ADD MLOAD DUP2 PUSH0 ADD PUSH0 PUSH2 0x100 EXP DUP2 SLOAD DUP2 PUSH20 0xFFFFFFFFFFFFFFFFFFFFFFFFFFFFFFFFFFFFFFFF MUL NOT AND SWAP1 DUP4 PUSH20 0xFFFFFFFFFFFFFFFFFFFFFFFFFFFFFFFFFFFFFFFF AND MUL OR SWAP1 SSTORE POP PUSH1 0x20 DUP3 ADD MLOAD DUP2 PUSH1 0x1 ADD SSTORE PUSH1 0x40 DUP3 ADD MLOAD DUP2 PUSH1 0x2 ADD SSTORE PUSH1 0x60 DUP3 ADD MLOAD DUP2 PUSH1 0x3 ADD SSTORE PUSH1 0x80 DUP3 ADD MLOAD DUP2 PUSH1 0x4 ADD SSTORE PUSH1 0xA0 DUP3 ADD MLOAD DUP2 PUSH1 0x5 ADD SSTORE SWAP1 POP POP POP POP POP JUMP JUMPDEST PUSH0 PUSH0 REVERT JUMPDEST PUSH0 PUSH20 0xFFFFFFFFFFFFFFFFFFFFFFFFFFFFFFFFFFFFFFFF DUP3 AND SWAP1 POP SWAP2 SWAP1 POP JUMP JUMPDEST PUSH0 PUSH2 0x66E DUP3 PUSH2 0x645 JUMP JUMPDEST SWAP1 POP SWAP2 SWAP1 POP JUMP JUMPDEST PUSH2 0x67E DUP2 PUSH2 0x664 JUMP JUMPDEST DUP2 EQ PUSH2 0x688 JUMPI PUSH0 PUSH0 REVERT JUMPDEST POP JUMP JUMPDEST PUSH0 DUP2 CALLDATALOAD SWAP1 POP PUSH2 0x699 DUP2 PUSH2 0x675 JUMP JUMPDEST SWAP3 SWAP2 POP POP JUMP JUMPDEST PUSH0 PUSH1 0x20 DUP3 DUP5 SUB SLT ISZERO PUSH2 0x6B4 JUMPI PUSH2 0x6B3 PUSH2 0x641 JUMP JUMPDEST JUMPDEST PUSH0 PUSH2 0x6C1 DUP5 DUP3 DUP6 ADD PUSH2 0x68B JUMP JUMPDEST SWAP2 POP POP SWAP3 SWAP2 POP POP JUMP JUMPDEST PUSH2 0x6D3 DUP2 PUSH2 0x664 JUMP JUMPDEST DUP3 MSTORE POP POP JUMP JUMPDEST PUSH0 DUP2 SWAP1 POP SWAP2 SWAP1 POP JUMP JUMPDEST PUSH2 0x6EB DUP2 PUSH2 0x6D9 JUMP JUMPDEST DUP3 MSTORE POP POP JUMP JUMPDEST PUSH0 PUSH1 0xC0 DUP3 ADD SWAP1 POP PUSH2 0x704 PUSH0 DUP4 ADD DUP10 PUSH2 0x6CA JUMP JUMPDEST PUSH2 0x711 PUSH1 0x20 DUP4 ADD DUP9 PUSH2 0x6E2 JUMP JUMPDEST PUSH2 0x71E PUSH1 0x40 DUP4 ADD DUP8 PUSH2 0x6E2 JUMP JUMPDEST PUSH2 0x72B PUSH1 0x60 DUP4 ADD DUP7 PUSH2 0x6E2 JUMP JUMPDEST PUSH2 0x738 PUSH1 0x80 DUP4 ADD DUP6 PUSH2 0x6E2 JUMP JUMPDEST PUSH2 0x745 PUSH1 0xA0 DUP4 ADD DUP5 PUSH2 0x6E2 JUMP JUMPDEST SWAP8 SWAP7 POP POP POP POP POP POP POP JUMP JUMPDEST PUSH2 0x759 DUP2 PUSH2 0x6D9 JUMP JUMPDEST DUP2 EQ PUSH2 0x763 JUMPI PUSH0 PUSH0 REVERT JUMPDEST POP JUMP JUMPDEST PUSH0 DUP2 CALLDATALOAD SWAP1 POP PUSH2 0x774 DUP2 PUSH2 0x750 JUMP JUMPDEST SWAP3 SWAP2 POP POP JUMP JUMPDEST PUSH0 PUSH0 PUSH0 PUSH1 0x60 DUP5 DUP7 SUB SLT ISZERO PUSH2 0x791 JUMPI PUSH2 0x790 PUSH2 0x641 JUMP JUMPDEST JUMPDEST PUSH0 PUSH2 0x79E DUP7 DUP3 DUP8 ADD PUSH2 0x68B JUMP JUMPDEST SWAP4 POP POP PUSH1 0x20 PUSH2 0x7AF DUP7 DUP3 DUP8 ADD PUSH2 0x766 JUMP JUMPDEST SWAP3 POP POP PUSH1 0x40 PUSH2 0x7C0 DUP7 DUP3 DUP8 ADD PUSH2 0x766 JUMP JUMPDEST SWAP2 POP POP SWAP3 POP SWAP3 POP SWAP3 JUMP JUMPDEST PUSH0 DUP3 DUP3 MSTORE PUSH1 0x20 DUP3 ADD SWAP1 POP SWAP3 SWAP2 POP POP JUMP JUMPDEST PUSH32 0x4E6F20706C616E20666F756E6400000000000000000000000000000000000000 PUSH0 DUP3 ADD MSTORE POP JUMP JUMPDEST PUSH0 PUSH2 0x80E PUSH1 0xD DUP4 PUSH2 0x7CA JUMP JUMPDEST SWAP2 POP PUSH2 0x819 DUP3 PUSH2 0x7DA JUMP JUMPDEST PUSH1 0x20 DUP3 ADD SWAP1 POP SWAP2 SWAP1 POP JUMP JUMPDEST PUSH0 PUSH1 0x20 DUP3 ADD SWAP1 POP DUP2 DUP2 SUB PUSH0 DUP4 ADD MSTORE PUSH2 0x83B DUP2 PUSH2 0x802 JUMP JUMPDEST SWAP1 POP SWAP2 SWAP1 POP JUMP JUMPDEST PUSH32 0x496E73756666696369656E742062616C616E6365000000000000000000000000 PUSH0 DUP3 ADD MSTORE POP JUMP JUMPDEST PUSH0 PUSH2 0x876 PUSH1 0x14 DUP4 PUSH2 0x7CA JUMP JUMPDEST SWAP2 POP PUSH2 0x881 DUP3 PUSH2 0x842 JUMP JUMPDEST PUSH1 0x20 DUP3 ADD SWAP1 POP SWAP2 SWAP1 POP JUMP JUMPDEST PUSH0 PUSH1 0x20 DUP3 ADD SWAP1 POP DUP2 DUP2 SUB PUSH0 DUP4 ADD MSTORE PUSH2 0x8A3 DUP2 PUSH2 0x86A JUMP JUMPDEST SWAP1 POP SWAP2 SWAP1 POP JUMP JUMPDEST PUSH32 0x4E487B7100000000000000000000000000000000000000000000000000000000 PUSH0 MSTORE PUSH1 0x11 PUSH1 0x4 MSTORE PUSH1 0x24 PUSH0 REVERT JUMPDEST PUSH0 PUSH2 0x8E1 DUP3 PUSH2 0x6D9 JUMP JUMPDEST SWAP2 POP PUSH2 0x8EC DUP4 PUSH2 0x6D9 JUMP JUMPDEST SWAP3 POP DUP3 DUP3 ADD SWAP1 POP DUP1 DUP3 GT ISZERO PUSH2 0x904 JUMPI PUSH2 0x903 PUSH2 0x8AA JUMP JUMPDEST JUMPDEST SWAP3 SWAP2 POP POP JUMP JUMPDEST PUSH32 0x546F6F206561726C790000000000000000000000000000000000000000000000 PUSH0 DUP3 ADD MSTORE POP JUMP JUMPDEST PUSH0 PUSH2 0x93E PUSH1 0x9 DUP4 PUSH2 0x7CA JUMP JUMPDEST SWAP2 POP PUSH2 0x949 DUP3 PUSH2 0x90A JUMP JUMPDEST PUSH1 0x20 DUP3 ADD SWAP1 POP SWAP2 SWAP1 POP JUMP JUMPDEST PUSH0 PUSH1 0x20 DUP3 ADD SWAP1 POP DUP2 DUP2 SUB PUSH0 DUP4 ADD MSTORE PUSH2 0x96B DUP2 PUSH2 0x932 JUMP JUMPDEST SWAP1 POP SWAP2 SWAP1 POP JUMP JUMPDEST PUSH0 PUSH2 0x97C DUP3 PUSH2 0x6D9 JUMP JUMPDEST SWAP2 POP PUSH2 0x987 DUP4 PUSH2 0x6D9 JUMP JUMPDEST SWAP3 POP DUP3 DUP3 SUB SWAP1 POP DUP2 DUP2 GT ISZERO PUSH2 0x99F JUMPI PUSH2 0x99E PUSH2 0x8AA JUMP JUMPDEST JUMPDEST SWAP3 SWAP2 POP POP JUMP JUMPDEST PUSH32 0x53656E642045544820746F2066756E6420706C616E0000000000000000000000 PUSH0 DUP3 ADD MSTORE POP JUMP JUMPDEST PUSH0 PUSH2 0x9D9 PUSH1 0x15 DUP4 PUSH2 0x7CA JUMP JUMPDEST SWAP2 POP PUSH2 0x9E4 DUP3 PUSH2 0x9A5 JUMP JUMPDEST PUSH1 0x20 DUP3 ADD SWAP1 POP SWAP2 SWAP1 POP JUMP JUMPDEST PUSH0 PUSH1 0x20 DUP3 ADD SWAP1 POP DUP2 DUP2 SUB PUSH0 DUP4 ADD MSTORE PUSH2 0xA06 DUP2 PUSH2 0x9CD JUMP JUMPDEST SWAP1 POP SWAP2 SWAP1 POP JUMP JUMPDEST PUSH32 0x506C616E20657869737473000000000000000000000000000000000000000000 PUSH0 DUP3 ADD MSTORE POP JUMP JUMPDEST PUSH0 PUSH2 0xA41 PUSH1 0xB DUP4 PUSH2 0x7CA JUMP JUMPDEST SWAP2 POP PUSH2 0xA4C DUP3 PUSH2 0xA0D JUMP JUMPDEST PUSH1 0x20 DUP3 ADD SWAP1 POP SWAP2 SWAP1 POP JUMP JUMPDEST PUSH0 PUSH1 0x20 DUP3 ADD SWAP1 POP DUP2 DUP2 SUB PUSH0 DUP4 ADD MSTORE PUSH2 0xA6E DUP2 PUSH2 0xA35 JUMP JUMPDEST SWAP1 POP SWAP2 SWAP1 POP JUMP INVALID LOG2 PUSH5 0x6970667358 0x22 SLT KECCAK256 0xED SWAPN 0x57 PUSH4 0x3424592E PUSH15 0x75AF5F4CFAA7B03BC7975A7A58044F PUSH32 0x1C29320D50323164736F6C634300081E00330000000000000000000000000000 "
				},
				"gasEstimates": {
					"creation": {
						"codeDepositCost": "546200",
						"executionCost": "579",
						"totalCost": "546779"
					},
					"external": {
						"claimAllowance()": "infinite",
						"createPlan(address,uint256,uint256)": "infinite",
						"getPlan(address)": "infinite",
						"plans(address)": "infinite"
					}
				},
				"methodIdentifiers": {
					"claimAllowance()": "1259b484",
					"createPlan(address,uint256,uint256)": "e95fc90f",
					"getPlan(address)": "7cb22aaf",
					"plans(address)": "86d86d84"
				}
			},
			"storageLayout": {
				"storage": [
					{
						"astId": 19,
						"contract": "AllowanceBudget.sol:AllowanceBudget",
						"label": "plans",
						"offset": 0,
						"slot": "0",
						"type": "t_mapping(t_address,t_struct(AllowancePlan)14_storage)"
					}
				],
				"types": {
					"t_address": {
						"encoding": "inplace",
						"label": "address",
						"numberOfBytes": "20"
					},
					"t_mapping(t_address,t_struct(AllowancePlan)14_storage)": {
						"encoding": "mapping",
						"key": "t_address",
						"label": "mapping(address => struct AllowanceBudget.AllowancePlan)",
						"numberOfBytes": "32",
						"value": "t_struct(AllowancePlan)14_storage"
					},
					"t_struct(AllowancePlan)14_storage": {
						"encoding": "inplace",
						"label": "struct AllowanceBudget.AllowancePlan",
						"members": [
							{
								"astId": 3,
								"contract": "AllowanceBudget.sol:AllowanceBudget",
								"label": "funder",
								"offset": 0,
								"slot": "0",
								"type": "t_address"
							},
							{
								"astId": 5,
								"contract": "AllowanceBudget.sol:AllowanceBudget",
								"label": "totalAmount",
								"offset": 0,
								"slot": "1",
								"type": "t_uint256"
							},
							{
								"astId": 7,
								"contract": "AllowanceBudget.sol:AllowanceBudget",
								"label": "allowancePerInterval",
								"offset": 0,
								"slot": "2",
								"type": "t_uint256"
							},
							{
								"astId": 9,
								"contract": "AllowanceBudget.sol:AllowanceBudget",
								"label": "interval",
								"offset": 0,
								"slot": "3",
								"type": "t_uint256"
							},
							{
								"astId": 11,
								"contract": "AllowanceBudget.sol:AllowanceBudget",
								"label": "lastClaimed",
								"offset": 0,
								"slot": "4",
								"type": "t_uint256"
							},
							{
								"astId": 13,
								"contract": "AllowanceBudget.sol:AllowanceBudget",
								"label": "remainingBalance",
								"offset": 0,
								"slot": "5",
								"type": "t_uint256"
							}
						],
						"numberOfBytes": "192"
					},
					"t_uint256": {
						"encoding": "inplace",
						"label": "uint256",
						"numberOfBytes": "32"
					}
				}
			},
			"userdoc": {
				"kind": "user",
				"methods": {},
				"version": 1
			}
		}
	}
}